:020000040000FA
:100000000C9488000C94B0000C94B0000C94B000D8
:100010000C94B0000C94B0000C94B0000C94B000A0
:100020000C94B0000C94B0000C94B0000C947D09BA
:100030000C94B0000C94B0000C94B0000C94B00080
:100040000C94DB080C94B0000C944B090C9425091B
:100050000C94B0000C94B0000C94B0000C94B00060
:100060000C94B0000C94B000084AD73B3BCE016E14
:1000700084BCBFFDC12F3D6C74319ABD56833DDAFF
:100080003D00C77F11BED9E4BB4C3E916BAAAABE0E
:10009000000000803F072C7AA5BA6CC590DA3B932C
:1000A00065FC8BBC53F810FD3C5692834DBD879D7B
:1000B0003AB63DCBC9BF5BBE73DA0FC93F00000043
:1000C0000000240027002A0000000000250028006E
:1000D0002B000404040404040404020202020202C9
:1000E00003030303030301020408102040800102FC
:1000F000040810200102040810200000000800027B
:100100000100000304070000000000000000390A9D
:1001100011241FBECFEFD8E0DEBFCDBF11E0A0E0BD
:10012000B1E0E8EBF6E302C005900D92AA3AB10700
:10013000D9F723E0AAEAB1E001C01D92AC33B207BF
:10014000E1F710E0C8E8D0E004C02197FE010E946A
:10015000541BC738D107C9F70E94A30A0C945A1B35
:100160000C94000090E0FC01E650FF4F2491FC014C
:10017000EA51FF4F3491FC01EE52FF4FE491EE2320
:10018000C9F0222339F0233001F1A8F4213019F10C
:10019000223029F1F0E0EE0FFF1FE853FF4FA59149
:1001A000B4918FB7F894EC91611126C030953E233D
:1001B0003C938FBF08952730A9F02830C9F0243030
:1001C00049F7809180008F7D03C0809180008F77F8
:1001D00080938000DFCF84B58F7784BDDBCF84B57B
:1001E0008F7DFBCF8091B0008F778093B000D2CF0E
:1001F0008091B0008F7DF9CF3E2BDACF3FB7F894D6
:100200008091220290912302A0912402B0912502B4
:1002100026B5A89B05C02F3F19F00196A11DB11D61
:100220003FBFBA2FA92F982F8827BC01CD01620F9D
:10023000711D811D911D42E0660F771F881F991F58
:100240004A95D1F708958F929F92AF92BF92CF9225
:10025000DF92EF92FF924B015C010E94FE006B0166
:100260007C010E94FE006C197D098E099F09683E81
:10027000734081059105A8F321E0821A9108A10835
:10028000B10888EEC80E83E0D81EE11CF11C811471
:100290009104A104B10429F7FF90EF90DF90CF9073
:1002A000BF90AF909F908F900895AF92BF92CF92E2
:1002B000DF92EF92FF920F931F93CF93DF936C0126
:1002C0007B018B01040F151FEB015E01AE18BF0807
:1002D000C017D10759F06991D601ED91FC910190B9
:1002E000F081E02DC6010995892B79F7C501DF91D1
:1002F000CF911F910F91FF90EF90DF90CF90BF9023
:10030000AF900895FC01538D448D252F30E0842F4C
:1003100090E0821B930B541710F0CF96089501972D
:100320000895FC01918D828D981761F0A28DAE0F1A
:10033000BF2FB11D5D968C91928D9F5F9F73928FA1
:1003400090E008958FEF9FEF0895FC01918D828DCD
:10035000981731F0828DE80FF11D858D90E008959A
:100360008FEF9FEF0895FC01918D228D892F90E0F2
:10037000805C9F4F821B91098F739927089586E5B2
:1003800092E00E94B30121E0892B09F420E0822F42
:10039000089580E090E0892B29F00E94BF0181112F
:1003A0000C9400000895FC01A48DA80FB92FB11D75
:1003B000A35ABF4F2C91848D90E001968F7399279B
:1003C000848FA689B7892C93A089B1898C91837079
:1003D00080648C93938D848D981306C00288F38972
:1003E000E02D80818F7D80830895EF92FF920F939F
:1003F0001F93CF93DF93EC0181E0888F9B8D8C8DD1
:1004000098131AC0E889F989808185FF15C09FB7C4
:10041000F894EE89FF896083E889F9898081837087
:10042000806480839FBF81E090E0DF91CF911F9136
:100430000F91FF90EF900895F62E0B8D10E00F5F57
:100440001F4F0F731127E02E8C8D8E110CC00FB62D
:1004500007FCFACFE889F989808185FFF5CFCE01C5
:100460000E94D301F1CFEB8DEC0FFD2FF11DE35A6C
:10047000FF4FF0829FB7F8940B8FEA89FB89808148
:100480008062CFCFCF93DF93EC01888D8823B9F0C2
:10049000AA89BB89E889F9898C9185FD03C080818F
:1004A00086FD0DC00FB607FCF7CF8C9185FFF2CF0C
:1004B000808185FFEDCFCE010E94D301E9CFDF918E
:1004C000CF910895CF92DF92EF92FF92CF93DF9377
:1004D000EC01603282E07807CCF5653B710514F0E1
:1004E00064EB70E0898128E830E0281B310987FD42
:1004F0003395220F331F220F331F6901330FEE088C
:10050000FF088A8128E532E0281B310987FD3395F1
:10051000220F331F220F331F032E000C440B550BE9
:100520002C193D094E095F09DB0177FF02C0B0E0DD
:10053000A0E00E94DD1724EB30E040E050E00E9494
:10054000B317C20ED31EE41EF51EB601E881EC30CF
:1005500070F5298188E890E0821B910927FD939529
:10056000880F991F880F991F681779077CF02A81D7
:1005700088E592E0821B910927FD9395880F991FCA
:10058000880F991F681779070CF4CB010297880F21
:10059000991F4FB7F8942E2F30E0F901EE0FFF1F8F
:1005A000E20FF31FED50FD4F928381834FBFDF9128
:1005B000CF91FF90EF90DF90CF900895CF93DF938E
:1005C000FC0101900020E9F73197AF01481B590B5E
:1005D000BC0186E592E00E945501EC0142E050E04A
:1005E0006AE271E086E592E00E9455018C0F9D1F42
:1005F000DF91CF9108952F923F924F925F926F9229
:100600007F928F929F92AF92BF92CF92DF92EF92A2
:10061000FF920F931F93CF93DF93CDB7DEB766970B
:100620000FB6F894DEBF0FBECDBF1C014D875E87AD
:100630006F87788B2801390120E030E04FE753E4E1
:100640006D857E858F8598890E940619812C912C55
:1006500054018823A1F08CE0829DF001839DF00D70
:100660001124EA5DFD4F20813181428153816D85E6
:100670007E858F8598890E9427184B015C0120E0B8
:1006800030E04FE753E4C301B2010E94061988230A
:1006900009F4E4C08CE0829DF001839DF00D1124EB
:1006A000EA5DFD4F2481358146815781C301B20146
:1006B0000E9427186D837E838F83988720E030E027
:1006C0004FE753E4C701B6010E940619882309F4D5
:1006D000CAC08CE0829DF001839DF00D1124EA5D7B
:1006E000FD4F2085318542855385C701B6010E94A3
:1006F000271869877A878B879C87A5019401C50194
:10070000B4010E947C1A69837A838B839C832D8138
:100710003E814F815885CA01B9010E947C1A9B0114
:10072000AC0169817A818B819C810E942818698340
:100730007A838B839C8329853A854B855C85CA01A6
:10074000B9010E947C1A9B01AC0169817A818B817D
:100750009C810E9428180E94EF1A69837A838B83F8
:100760009C832FE632E143E85AE30E94061987FF93
:100770007FC08CE0829DF001839DF00D1124E85430
:10078000FE4F108211821282138214821582168209
:100790001782108611861286138620E030E04FE71C
:1007A00053E46D857E858F8598890E94061988237C
:1007B00081F08CE0829DF001839DF00D1124E751C2
:1007C000FE4F8D859E85AF85B88980839183A283F6
:1007D000B38320E030E04FE753E4C301B2010E944D
:1007E0000619882361F08CE0829DF001839DF00D55
:1007F0001124E751FE4F448255826682778220E0C1
:1008000030E04FE753E4C701B6010E940619882380
:1008100061F08CE0829DF001839DF00D1124E75181
:10082000FE4FC086D186E286F38666960FB6F894B0
:10083000DEBF0FBECDBFDF91CF911F910F91FF9013
:10084000EF90DF90CF90BF90AF909F908F907F9070
:100850006F905F904F903F902F9008951D821E8261
:100860001F8218862BCF19861A861B861C8645CFB9
:100870008091190290911A02A0911B02B0911C0262
:10088000898B9A8BAB8BBC8B8CE0829DD001839D36
:10089000B00D1124A854BE4FBE8BAD8B29813A8177
:1008A0004B815C81C501B4010E940B1929893A89E9
:1008B0004B895C890E947C1AED89FE896083718373
:1008C0008283938329813A814B815C816D817E8112
:1008D0008F8198850E940B1929893A894B895C89F7
:1008E0000E947C1AAD89BE8914966D937D938D9379
:1008F0009C93179729813A814B815C8169857A8520
:100900008B859C850E940B1929893A894B895C89C2
:100910000E947C1AED89FE896087718782879387A0
:100920003CCF2F923F924F925F926F927F928F9225
:100930009F92AF92BF92CF92DF92EF92FF920F936E
:100940001F93CF93DF93CDB7DEB76A970FB6F894B6
:10095000DEBF0FBECDBFA8E12A2EA3E03A2E86E26D
:1009600092E09A8F898F10E000E0A98DBA8DA6528F
:10097000B240BA83A9831E821D82E981FA81EA5DB1
:10098000FD4FFA87E9874080518062807380E9815A
:10099000FA81E751FE4F80819181A281B3818D87D9
:1009A0009E87AF87B88B9C01AD01C301B2010E9445
:1009B00027184B015C0120E030E0A9010E946F1A6A
:1009C000181624F0B7FAB094B7F8B094E981FA8118
:1009D000E854FE4FC080D180E280F38020E030E018
:1009E000A901C701B6010E946F1AA7019601181646
:1009F0000CF05058C501B4010E946F1A87FDBDC1AB
:100A0000A7019601C301B2010E942818A985BA85E1
:100A10006D937D938D939C9313978D819E81019609
:100A20009E838D83A981BA811496BA83A983039783
:100A300009F0A3CFA98DBA8D18968D919D910D9037
:100A4000BC91A02D8D839E83AF83B887A98DBA8D6D
:100A500014968D919D910D90BC91A02D89839A83C0
:100A6000AB83BC83E98DFA8D4080518062807380B6
:100A700020E030E0A901C301B2010E946F1AC12C2D
:100A8000D12CF0E8EF2EFFE3FF2E87FF06C0C12C2C
:100A9000D12CE0E8EE2EEFEBFE2E29813A814B813E
:100AA0005C81CA01B9010E947C1A4B015C01A3015F
:100AB0009201C301B2010E947C1A9B01AC01C501E5
:100AC000B4010E9428180E94EF1AA70196010E9403
:100AD0007C1A698B7A8B8B8B9C8B20E030E04CED01
:100AE00051E40E94271869877A878B879C879B012E
:100AF000AC010E947C1A6B017C012D813E814F81EB
:100B00005885CA01B9010E947C1A6D877E878F873C
:100B1000988BA70196010E9428180E94EF1A6D8BEE
:100B20007E8B8F8B988F20E034E54AE355E4C70134
:100B3000B6010E9427182D853E854F8558890E9451
:100B400028184B015C0120E030E04CED52E46D8947
:100B50007E898F89988D0E947C1A9B01AC01C5010A
:100B6000B4010E940B194B015C01A701960160E0E2
:100B70007DE18DE096E40E9427182D853E854F8506
:100B800058890E94271820E034E345E056E40E948B
:100B90000B196B017C0120E030E040E85FEBC50100
:100BA000B4010E94061987FDF3C020E030E040E860
:100BB0005FE3C501B4010E946F1A181634F4812C4A
:100BC000912C70E8A72E7FE3B72E20E030E040E8BC
:100BD0005FEBC701B6010E94061987FDE0C020E067
:100BE00030E040E85FE3C701B6010E946F1A1816B3
:100BF00034F4C12CD12C50E8E52E5FE3F52E298585
:100C00003A854B855C856D817E818F8198850E94B8
:100C1000A7186D837E838F839887C501B4010E94D6
:100C200016189B01AC016D817E818F8198850E9491
:100C300028184B015C01C701B6010E9416186B0110
:100C40007C0120E030E0A90169897A898B899C893F
:100C50000E946F1AA301920187FDA8C069817A8161
:100C60008B819C810E94A7186093AC017093AD01A9
:100C70008093AE019093AF012AED3FE049E450E448
:100C8000C501B4010E940B1920E030E044E353E4B5
:100C90000E947C1A4B015C018092B4019092B501D4
:100CA000A092B601B092B7012AED3FE049E450E4CA
:100CB000C701B6010E940B1920E030E044E353E481
:100CC0000E947C1A6B017C01C092B001D092B101EC
:100CD000E092B201F092B3012AED3FE049E450E422
:100CE0006091AC017091AD018091AE019091AF0126
:100CF0000E940B1920E030E044E353E40E947C1A88
:100D00002B013C014092AC015092AD016092AE01CA
:100D10007092AF010115110509F04FC0A5019401B2
:100D200060E070E084EB92E40E9427184B015C01C4
:100D300020E030E044EB52E4C301B2010E942818E5
:100D40002B013C0120E030E0A901C501B4010E9463
:100D5000061987FDEFC020E030E044E353E4C5010D
:100D6000B4010E946F1A18160CF06BC0812C912CE4
:100D700084E3A82E83E4B82E64C08D859E85AF855C
:100D8000B889E985FA8580839183A283B38345CEB0
:100D9000812C912C60E8A62E6FEBB62E16CFC12CBD
:100DA000D12C40E8E42E4FEBF42E29CF5058698126
:100DB0007A818B819C81905855CF0130110509F0C3
:100DC000B0C020E030E044EB52E4C501B4010E9421
:100DD00028184B015C01A701960160E070E084E3F4
:100DE00093E40E9427186B017C01A301920160E04B
:100DF00070E084EB92E40E9427182B013C0120E074
:100E000030E0A901C501B4010E94061987FD8EC01A
:100E100020E030E044E353E4C501B4010E946F1ABE
:100E2000181634F4812C912C34E3A32E33E4B32E22
:100E300020E030E0A901C701B6010E94061987FD34
:100E40007DC020E030E044E353E4C701B6010E94D6
:100E50006F1A181634F4C12CD12C24E3E22E23E4AB
:100E6000F22E20E030E0A901C301B2010E94061970
:100E700087FD68C020E030E044E353E4C301B201E1
:100E80000E946F1A181634F4412C512C94E3692EE9
:100E900093E4792EC501B4010E947D19C1010E941D
:100EA0006202C701B6010E947D19C10103960E942A
:100EB0006202C301B2010E947D19C10106960E941F
:100EC00062020F5F1F4FF9E02F0E311C898D9A8D42
:100ED0000C969A8F898F0430110509F046CD8091C8
:100EE000AA019091AB0101969093AB018093AA0166
:100EF0006A960FB6F894DEBF0FBECDBFDF91CF91DB
:100F00001F910F91FF90EF90DF90CF90BF90AF9027
:100F10009F908F907F906F905F904F903F902F9019
:100F200008950230110509F0F9CE4BCF812C912C98
:100F300054017ECF812C912C540183CFC12CD12C14
:100F400076018FCF412C512C3201A4CF0F931F93E8
:100F5000CF93DF93C9EED1E006E212E00E94910444
:100F6000288139814A815B81F801608171818281A8
:100F700093810E94061981111AC0F80124813581DC
:100F8000468157816C817D818E819F810E940619E7
:100F900081110DC0288539854A855B85F8016085FA
:100FA0007185828593850E940619882339F064E152
:100FB00070E080E090E00E942301D0CF2C96045F87
:100FC0001F4FF2E0C931DF0749F6DF91CF911F9142
:100FD0000F910895CF92DF92EF92FF920F931F939C
:100FE000CF93DF93C6E2D2E020E030E040E751E467
:100FF000688179818A819B810E942818AB01BC019C
:10100000C12CD12C8FE7E82E83E4F82E97018601BE
:1010100090E080E00E94FB0220E030E040E751E4F5
:101020006C857D858E859F850E942818AB01BC014B
:10103000970181E090E00E94FB0220E030E040E771
:1010400051E4688D798D8A8D9B8D0E942718AB01A4
:10105000BC01970182E090E00E94FB0220E030E0BA
:1010600040E751E46CA17DA18EA19FA10E942718A9
:10107000AB01BC01970183E090E00E94FB02DF918D
:10108000CF911F910F91FF90EF90DF90CF900C9434
:10109000A607CF92DF92EF92FF920F931F93CF9309
:1010A000DF93C6E2D2E020E030E040E751E468811F
:1010B00079818A819B810E942718AB01BC01C12CD8
:1010C000D12C8FE7E82E83E4F82E9701860190E07B
:1010D00080E00E94FB0220E030E040E751E46C85B4
:1010E0007D858E859F850E942718AB01BC019701E5
:1010F00081E090E00E94FB0220E030E040E751E414
:10110000688D798D8A8D9B8D0E942818AB01BC015A
:10111000970182E090E00E94FB0220E030E040E78F
:1011200051E46CA17DA18EA19FA10E942818AB0162
:10113000BC01970183E090E00E94FB02DF91CF9118
:101140001F910F91FF90EF90DF90CF900C94A60726
:10115000CF92DF92EF92FF920F931F93CF93DF9383
:1011600080E090E0A0E8BFE38093190290931A0218
:10117000A0931B02B0931C02D0E0C0E0C12CD12C84
:1011800080EEE82E81ECF82E00E010E02FE733E44B
:10119000B901A801CE010E94FB022196C430D105FD
:1011A00069F7DF91CF911F910F91FF90EF90DF9042
:1011B000CF900C94A6071F920F920FB60F92112496
:1011C0002F933F938F939F93AF93BF9380911E0272
:1011D00090911F02A0912002B091210230911D0236
:1011E00023E0230F2D3758F50196A11DB11D209343
:1011F0001D0280931E0290931F02A0932002B093C1
:1012000021028091220290912302A0912402B091A8
:1012100025020196A11DB11D809322029093230205
:10122000A0932402B0932502BF91AF919F918F911B
:101230003F912F910F900FBE0F901F90189526E8A9
:10124000230F0296A11DB11DD2CF1F920F920FB690
:101250000F9211242F933F934F935F936F937F933C
:101260008F939F93AF93BF93EF93FF9386E592E0A5
:101270000E94D301FF91EF91BF91AF919F918F9108
:101280007F916F915F914F913F912F910F900FBE82
:101290000F901F9018951F920F920FB60F92112466
:1012A0002F938F939F93EF93FF93E0916602F091BA
:1012B00067028081E0916C02F0916D0282FD1BC09B
:1012C000908180916F028F5F8F73209170028217DF
:1012D00041F0E0916F02F0E0EA5AFD4F958F809364
:1012E0006F02FF91EF919F918F912F910F900FBE01
:1012F0000F901F9018958081F4CF1F920F920FB618
:101300000F9211242F933F934F935F936F937F938B
:101310008F939F93AF93BF93CF93DF93EF93FF93FD
:101320008091E801C0911703D0E087FF24C010929C
:101330008500109284008091E8018F5F8093E8011E
:101340008091E801082E000C990B8C179D0724F45E
:101350008091E8018C30C4F18091840090918500E7
:10136000049680349C4908F47AC08091840090915E
:101370008500049676C08091E801082E000C990B38
:101380008C179D07C4F6E091E8018E2FEE0F990BA4
:10139000FC01EE0FFF1FE80FF91FED50FD4F80819C
:1013A00086FFC9CFE091E8018E2FEE0F990BFC016B
:1013B000EE0FFF1FE80FF91FED50FD4F808160E039
:1013C0008F730E94B200B7CF2091840030918500C6
:1013D000E091E8018E2FEE0F990BFC01EE0FFF1F3D
:1013E000E80FF91FED50FD4F81819281820F931F0D
:1013F0009093890080938800E091E8018E2FEE0F92
:10140000990BFC01EE0FFF1FE80FF91FED50FD4F88
:10141000808186FF11C0E091E8018E2FEE0F990BBD
:10142000FC01EE0FFF1FE80FF91FED50FD4F80810B
:1014300061E08F730E94B200FF91EF91DF91CF9135
:10144000BF91AF919F918F917F916F915F914F91DC
:101450003F912F910F900FBE0F901F90189580E431
:101460009CE990938900809388008FEF8093E80136
:10147000E3CF109259021092580288EE93E0A0E058
:10148000B0E080935A0290935B02A0935C02B09309
:101490005D028CE191E0909357028093560285ECB7
:1014A00090E0909363028093620284EC90E09093CA
:1014B00065028093640280EC90E0909367028093D1
:1014C000660281EC90E0909369028093680282EC5E
:1014D00090E090936B0280936A0286EC90E0909388
:1014E0006D0280936C0210926F0210927002109243
:1014F00071021092720228E133E04FEF68EB7BE05B
:10150000F901275F3F4F809117038C30D0F491E0B1
:10151000980F90931703808390E0DC01AA0FBB1F04
:10152000A80FB91FAD50BD4F12967C936E931197C3
:1015300033962E173F0739F783E02C33380701F72E
:1015400008954083F5CFCF93DF93CDB7DEB72E97C5
:101550000FB6F894DEBF0FBECDBF789484B582601D
:1015600084BD84B5816084BD85B5826085BD85B547
:10157000816085BD80916E00816080936E001092C5
:101580008100809181008260809381008091810040
:1015900081608093810080918000816080938000D1
:1015A0008091B10084608093B1008091B00081602F
:1015B0008093B00080917A00846080937A0080915B
:1015C0007A00826080937A0080917A0081608093B3
:1015D0007A0080917A00806880937A001092C1002E
:1015E000E0916602F091670282E08083E0916202FE
:1015F000F09163021082E0916402F091650280E153
:10160000808310926E02E0916A02F0916B0286E094
:101610008083E0916802F09169028081806180831B
:10162000E0916802F0916902808188608083E09196
:101630006802F0916902808180688083E09168028D
:10164000F091690280818F7D80838DE291E00E941C
:10165000DE02C12CD12CA0EEEA2EA1ECFA2E00E085
:1016600010E020E232E440E050E068E772E490E00D
:1016700080E00E94FB0200E010E020E232E440E063
:1016800050E068E772E481E090E00E94FB0200E035
:1016900010E0980140E050E068E772E482E090E0FA
:1016A0000E94FB0200E010E0980140E050E068E793
:1016B00072E483E090E00E94FB02E9EEF1E0A6E232
:1016C000B2E040815181628173814D935D936D934E
:1016D0007C931397448155816681778114964D934D
:1016E0005D936D937C9317974085518562857385D3
:1016F00018964D935D936D937C931B973C961C9627
:1017000082E0E931F807E9F608E113E060E0862EAF
:1017100061E0962E7CE3672E73E0772EECE05E2E80
:10172000F2E04F2E1A830983B12CA12CA981BA8132
:101730008C918C3008F076C0F501EE0FFF1FE80D9C
:10174000F91D20813181C9019927FC01EA51FF4F20
:1017500064918E529F4FFC018491882399F090E010
:10176000880F991FFC01E254FF4FA591B491FC0131
:10177000E853FF4F459154918FB7F894EC916E2B3D
:101780006C938FBFA981BA818C91482F50E0FA01E8
:10179000EE0FFF1FE40FF51FED50FD4F922F9F73CB
:1017A0002081207C292B208311961C921197129660
:1017B0001C92652D0E94481B859DA001112430E0DC
:1017C00020E0BA01620F731FFB01EE0FFF1FE60F4F
:1017D000F71FED50FD4F908196FD15C02F5F3F4FD5
:1017E0002C30310571F781110EC0109280004092AB
:1017F00081001092850010928400B19A80916F0050
:10180000826080936F00A981BA81EC918E2F90E065
:10181000FC01EE0FFF1FE80FF91FED50FD4F808117
:101820008064808362E370E080E090E00E942301A6
:10183000BFEFAB1ABB0AE981FA813396FA83E983D9
:10184000F3E0AF16B10409F071CF075F1F4F86E0D8
:10185000880E911C6016710609F064CF0E949104F5
:1018600080E491E00E94DE0268EE73E080E090E0A8
:101870000E942301812C912CE0E8AE2EEFE3BE2ED6
:10188000F0E02F2EF0E03F2E412C512CA0E46A2EE8
:10189000762C83E591E00E94DE02809219029092FC
:1018A0001A02A0921B02B0921C021A821982C12C49
:1018B000D12C78E4E72E72ECF72E00E010E02FE751
:1018C00033E4B901A80189819A810E94FB02A981B0
:1018D000BA811196BA83A983149749F70E94A60783
:1018E00060ED77E080E090E00E94230189E591E0DF
:1018F0000E94DE0280E090E0A0E0B1E48093190253
:1019000090931A02A0931B02B0931C02A6E0B0E0D1
:10191000BA83A983E981FA813197FA83E983EF2BAE
:1019200009F45CC120E030E0A901609142027091AD
:10193000430280914402909145020E940619C12CF5
:10194000D12C60EFE62E61ECF62E00E010E098015D
:1019500040E050E068E772E48111A2C082E090E0CC
:101960000E94FB020E94A60700E010E020EA32E499
:1019700040E050E068E772E482E090E00E94FB0201
:101980000E94A607C12CD12C38E4E32E32ECF32EB2
:1019900000E010E020EA32E440E050E068E772E462
:1019A00082E090E00E94FB020E94A607409219028A
:1019B00050921A0260921B0270921C0200E010E02A
:1019C000980140E050E068E772E490E080E00E9417
:1019D000FB0200E010E020EA32E440E050E068E77B
:1019E00072E481E090E00E94FB0200E010E020E25F
:1019F00032E440E050E068E772E482E090E00E9468
:101A0000FB0200E010E020E232E440E050E068E752
:101A100072E483E090E00E94FB020E94A60780E04F
:101A200090E0A0E0B1E48093190290931A02A09391
:101A30001B02B0931C02C12CD12C40EFE42E41ECD0
:101A4000F42E00E010E020EA32E440E050E068E7E5
:101A500072E481E090E00E94FB020E94A60700E091
:101A600010E0980140E050E068E772E481E090E027
:101A70000E94FB020E94A607C12CD12C58E4E52E3F
:101A800052ECF52E00E010E0980140E050E068E7ED
:101A900072E481E090E00E94FB020E94A6073ACF28
:101AA00090E080E00E94FB020E94A60700E010E0A8
:101AB00020EA32E440E050E068E772E490E080E041
:101AC0000E94FB020E94A607C12CD12C88E4E82EBC
:101AD00082ECF82E00E010E020EA32E440E050E032
:101AE00068E772E490E080E00E94FB020E94A60793
:101AF0004092190250921A0260921B0270921C02CC
:101B000000E010E020E232E440E050E068E772E4F8
:101B100090E080E00E94FB0200E010E020E232E46E
:101B200040E050E068E772E481E090E00E94FB0250
:101B300000E010E0980140E050E068E772E482E0E5
:101B400090E00E94FB0200E010E020EA32E440E076
:101B500050E068E772E483E090E00E94FB020E949C
:101B6000A60780E090E0A0E0B1E480931902909392
:101B70001A02A0931B02B0931C02C12CD12C90EF2F
:101B8000E92E91ECF92E00E010E020EA32E440E08A
:101B900050E068E772E483E090E00E94FB020E945C
:101BA000A60700E010E0980140E050E068E772E42A
:101BB00083E090E00E94FB020E94A607C12CD12C7A
:101BC00028E4E22E22ECF22E00E010E0980140E042
:101BD00050E068E772E483E090E05DCF60ED77E08D
:101BE00080E090E00E94230186E691E00E94DE0200
:101BF00080E090E0A0E0B1E48093190290931A0293
:101C0000A0931B02B0931C02A6E0B0E0BA83A983A4
:101C1000E981FA813197FA83E983EF2B09F45CC1FA
:101C200020E030E0A90160914E0270914F02809156
:101C30005002909151020E940619C12CD12C00EF44
:101C4000E02E01ECF02E00E010E0980140E050E0C2
:101C500068E772E48111A2C083E090E00E94FB0279
:101C60000E94A60700E010E020EA32E440E050E0E5
:101C700068E772E483E090E00E94FB020E94A607FE
:101C8000C12CD12CA8E4EA2EA2ECFA2E00E010E040
:101C900020EA32E440E050E068E772E483E090E05C
:101CA0000E94FB020E94A6074092190250921A025B
:101CB00060921B0270921C0200E010E020EA32E405
:101CC00040E050E068E772E490E080E00E94FB02B0
:101CD00000E010E0980140E050E068E772E481E045
:101CE00090E00E94FB0200E010E020E232E440E0DD
:101CF00050E068E772E482E090E00E94FB0200E0BE
:101D000010E020E232E440E050E068E772E483E073
:101D100090E00E94FB020E94A60780E090E0A0E015
:101D2000B1E48093190290931A02A0931B02B0931E
:101D30001C02C12CD12CB0EFEB2EB1ECFB2E00E03D
:101D400010E020EA32E440E050E068E772E490E01E
:101D500080E00E94FB020E94A60700E010E09801CC
:101D600040E050E068E772E490E080E00E94FB020F
:101D70000E94A607C12CD12C18E4E12E12ECF12E02
:101D800000E010E0980140E050E068E772E490E085
:101D900080E00E94FB020E94A6073ACF81E090E01B
:101DA0000E94FB020E94A60700E010E020EA32E455
:101DB00040E050E068E772E481E090E00E94FB02BE
:101DC0000E94A607C12CD12C78E4E72E72ECF72EE6
:101DD00000E010E020EA32E440E050E068E772E41E
:101DE00081E090E00E94FB020E94A6074092190247
:101DF00050921A0260921B0270921C0200E010E0E6
:101E000020E232E440E050E068E772E490E080E0F5
:101E10000E94FB0200E010E020E232E440E050E0EB
:101E200068E772E481E090E00E94FB0200E010E0CD
:101E300020EA32E440E050E068E772E482E090E0BB
:101E40000E94FB0200E010E0980140E050E068E7EB
:101E500072E483E090E00E94FB020E94A60780E00B
:101E600090E0A0E0B1E48093190290931A02A0934D
:101E70001B02B0931C02C12CD12CE0EFEE2EE1EC42
:101E8000FE2E00E010E020EA32E440E050E068E797
:101E900072E482E090E00E94FB020E94A60700E04C
:101EA00010E0980140E050E068E772E482E090E0E2
:101EB0000E94FB020E94A607C12CD12CF8E4EF2E51
:101EC000F2ECFF2E00E010E0980140E050E068E7FF
:101ED00072E482E090E05DCF60ED77E080E090E03A
:101EE0000E94230180E791E00E94DE0280E090E002
:101EF000A0E8B0E48093190290931A02A0931B0209
:101F0000B0931C02A6E0B0E0BA83A983E981FA810C
:101F10003197FA83E983EF2B09F4E8C120E030E040
:101F2000A90160914E0270914F02809150029091F0
:101F300051020E940619C12CD12C60EFE62E61ECF3
:101F4000F62E00E010E0980140E050E068E772E40F
:101F50008111EEC083E090E00E94FB020E94A60780
:101F6000C12CD12C08E4E02E02ECF02E00E010E0B1
:101F700020EA31E44FE65FE060E872E490E080E060
:101F80000E94FB0208E11EEA23E632E445E150EC40
:101F900066E072E481E090E00E94FB0200E010E065
:101FA00020EA31E44FE65FE060E872E482E090E02E
:101FB0000E94FB02C12CD12C80EFE82E81ECF82E80
:101FC00008E11EEA23E632E445E150EC66E072E403
:101FD00083E090E00E94FB020E94A607C12CD12C56
:101FE00098E4E92E92ECF92E08E11EEA23E632E4A9
:101FF00045E150EC66E072E483E090E00E94FB0271
:102000000E94A60700E010E020EA31E44FE65FE01E
:1020100060E872E490E080E00E94FB0208E11EEAC2
:1020200023E632E445E150EC66E072E481E090E0C2
:102030000E94FB0200E010E020EA31E44FE65FE09E
:1020400060E872E482E090E00E94FB0208E11EEA90
:1020500023E632E445E150EC66E072E483E090E090
:102060000E94FB020E94A607C12CD12C20EFE22E79
:1020700021ECF22E08E11EEA23E632E445E150ECC1
:1020800066E072E481E090E00E94FB020E94A607F5
:10209000C12CD12C38E4E32E32ECF32E00E010E01A
:1020A000980140E050E068E772E490E080E00E9430
:1020B000FB02C12CD12C40EFE42E41ECF42E00E0C9
:1020C00010E0980140E050E068E772E481E090E0C1
:1020D0000E94FB02C12CD12C58E4E52E52ECF52EC7
:1020E00000E010E020E232E440E050E068E772E413
:1020F00082E090E00E94FB0200E010E020E232E487
:1021000040E050E068E772E483E090E00E94FB0268
:102110000E94A60700E010E0980140E050E068E768
:1021200072E481E090E00E94FB020E94A607EECEDE
:1021300090E080E00E94FB020E94A60708E11EEAF0
:1021400023E632E445E150EC66E072E490E080E0A2
:102150000E94FB02C12CD12CE8E4EE2EE2ECFE2E14
:1021600000E010E020EA31E44FE65FE060E872E46E
:1021700081E090E00E94FB0208E11EEA23E632E4DF
:1021800045E150EC66E072E482E090E00E94FB02E0
:1021900000E010E020EA31E44FE65FE060E872E43E
:1021A00083E090E00E94FB020E94A60708E11EEA7D
:1021B00023E632E445E150EC66E072E490E080E032
:1021C0000E94FB020E94A60708E11EEA23E632E411
:1021D00045E150EC66E072E490E080E00E94FB0292
:1021E00000E010E020EA31E44FE65FE060E872E4EE
:1021F00081E090E00E94FB0208E11EEA23E632E45F
:1022000045E150EC66E072E482E090E00E94FB025F
:1022100000E010E020EA31E44FE65FE060E872E4BD
:1022200083E090E00E94FB020E94A607C12CD12C03
:10223000F0EFEF2EF1ECFF2E08E11EEA23E632E488
:1022400045E150EC66E072E482E090E00E94FB021F
:102250000E94A607C12CD12CA8E4EA2EA2ECFA2EEB
:1022600000E010E020E232E440E050E068E772E491
:1022700090E080E00E94FB0200E010E020E232E407
:1022800040E050E068E772E481E090E00E94FB02E9
:10229000C12CD12CB0EFEB2EB1ECFB2E00E010E006
:1022A000980140E050E068E772E482E090E00E942C
:1022B000FB02C12CD12C18E4E12E12ECF12E00E02F
:1022C00010E0980140E050E068E772E483E090E0BD
:1022D0000E94FB020E94A60700E010E0980140E087
:1022E00050E068E772E482E090E01DCF60ED77E0B7
:1022F00080E090E00E9423018AE791E00E94DE02E4
:1023000080E090E0A0E8B0E48093190290931A0274
:10231000A0931B02B0931C02A6E0B0E0BA83A9838D
:10232000E981FA813197FA83E983EF2B09F4E8C157
:1023300020E030E0A9016091420270914302809157
:102340004402909145020E940619C12CD12C70EFD5
:10235000E72E71ECF72E00E010E0980140E050E02D
:1023600068E772E48111E2C082E090E00E94FB0223
:102370000E94A607C12CD12C28E4E22E22ECF22EDA
:1023800008E11EEA23E632E445E150EC66E072E43F
:1023900090E080E00E94FB0200E010E020EA31E4DF
:1023A0004FE65FE060E872E481E090E00E94FB02AB
:1023B000C12CD12C30EFE32E31ECF32E08E11EEAD4
:1023C00023E632E445E150EC66E072E482E090E01E
:1023D0000E94FB02C12CD12C48E4E42E42ECF42EE6
:1023E00000E010E020EA31E44FE65FE060E872E4EC
:1023F00083E090E00E94FB020E94A60708E11EEA2B
:1024000023E632E445E150EC66E072E482E090E0DD
:102410000E94FB020E94A60708E11EEA23E632E4BE
:1024200045E150EC66E072E490E080E00E94FB023F
:1024300000E010E020EA31E44FE65FE060E872E49B
:1024400081E090E00E94FB0208E11EEA23E632E40C
:1024500045E150EC66E072E482E090E00E94FB020D
:1024600000E010E020EA31E44FE65FE060E872E46B
:1024700083E090E00E94FB020E94A607C12CD12CB1
:1024800050EFE52E51ECF52E08E11EEA23E632E48A
:1024900045E150EC66E072E490E080E00E94FB02CF
:1024A0000E94A60700E010E0980140E050E068E7D5
:1024B00072E490E080E00E94FB02C12CD12C68E421
:1024C000E62E62ECF62E00E010E0980140E050E0CD
:1024D00068E772E481E090E00E94FB0200E010E017
:1024E00020E232E440E050E068E772E482E090E00D
:1024F0000E94FB0200E010E020E232E440E050E005
:1025000068E772E483E090E00E94FB020E94A60765
:1025100000E010E0980140E050E068E772E490E0ED
:1025200080E00E94FB020E94A607FACE81E090E0C4
:102530000E94FB020E94A607C12CD12CF8E4EF2ECA
:10254000F2ECFF2E00E010E020EA31E44FE65FE01D
:1025500060E872E490E080E00E94FB02C12CD12C84
:10256000A0EFEA2EA1ECFA2E08E11EEA23E632E4FF
:1025700045E150EC66E072E481E090E00E94FB02ED
:10258000C12CD12CB8E4EB2EB2ECFB2E00E010E015
:1025900020EA31E44FE65FE060E872E482E090E038
:1025A0000E94FB0208E11EEA23E632E445E150EC1A
:1025B00066E072E483E090E00E94FB020E94A607BE
:1025C00008E11EEA23E632E445E150EC66E072E4FD
:1025D00081E090E00E94FB020E94A60700E010E06C
:1025E00020EA31E44FE65FE060E872E490E080E0EA
:1025F0000E94FB0208E11EEA23E632E445E150ECCA
:1026000066E072E481E090E00E94FB0200E010E0EE
:1026100020EA31E44FE65FE060E872E482E090E0B7
:102620000E94FB0208E11EEA23E632E445E150EC99
:1026300066E072E483E090E00E94FB020E94A6073D
:10264000C12CD12C10EFE12E11ECF12E08E11EEA85
:1026500023E632E445E150EC66E072E483E090E08A
:102660000E94FB020E94A607C12CD12C08E4E02E98
:1026700002ECF02E00E010E020E232E440E050E016
:1026800068E772E490E080E00E94FB0200E010E066
:1026900020E232E440E050E068E772E481E090E05C
:1026A0000E94FB0200E010E0980140E050E068E783
:1026B00072E482E090E00E94FB02C12CD12C80EFFA
:1026C000E82E81ECF82E00E010E0980140E050E0A8
:1026D00068E772E483E090E00E94FB020E94A60794
:1026E000C12CD12C98E4E92E92ECF92E00E010E0F8
:1026F000980140E050E068E772E483E090E011CF99
:1027000060ED77E080E090E00E94230185E891E0B1
:102710000E94DE028092190290921A02A0921B027D
:10272000B0921C0220E030E0A90160914E0270914D
:102730004F0280915002909151020E94061981111E
:10274000FAC20E94490880913E0290913F02A091F6
:102750004002B091410289839A83AB83BC8380910C
:10276000420290914302A0914402B09145028D83B0
:102770009E83AF83B8878091460290914702A091D3
:102780004802B091490289879A87AB87BC874092FB
:10279000190250921A0260921B0270921C02A3E06E
:1027A000B0E0BE87AD87C12CD12CE8E4EE2EE2E488
:1027B000FE2E00E010E020EA31E44FE65FE060E842
:1027C00072E482E090E00E94FB020E94A60708E10A
:1027D0001EEA23E632E445E150EC66E072E482E072
:1027E00090E00E94FB020E94A607ED85FE853197CE
:1027F000FE87ED87EF2BB9F6C984DA84EB84FC847D
:102800000D811E812F81388549815A816B817C81A0
:1028100082E090E00E94FB020E94A60780921902CB
:1028200090921A02A0921B02B0921C020E94EA0728
:1028300060ED77E080E090E00E9423018FE891E076
:102840000E94DE028092190290921A02A0921B024C
:10285000B0921C0220E030E0A90160914E0270911C
:102860004F0280915002909151020E9406198111ED
:10287000DAC20E94490880913E0290913F02A091E5
:102880004002B091410289839A83AB83BC838091DB
:10289000420290914302A0914402B09145028D837F
:1028A0009E83AF83B8878091460290914702A091A2
:1028B0004802B091490289879A87AB87BC874092CA
:1028C000190250921A0260921B0270921C02A3E03D
:1028D000B0E0BE87AD87C12CD12C5CE5E52E52E47B
:1028E000F52E00E010E020EA32E440E050E060E045
:1028F00072E482E090E00E94FB020E94A607C12CD5
:10290000D12C60E2E62E61E4F62E00E010E020EA31
:1029100032E440E050E060E072E482E090E00E9447
:10292000FB020E94A607ED85FE853197FE87ED87A5
:10293000EF2B89F6C984DA84EB84FC840D811E8137
:102940002F81388549815A816B817C8182E090E0BA
:102950000E94FB020E94A6078092190290921A021E
:10296000A0921B02B0921C020E94EA0760ED77E081
:1029700080E090E00E9423018AE991E00E94DE025B
:102980000E94A8088092190290921A02A0921B023B
:10299000B0921C02C12CD12C9FE7E92E93E4F92EB2
:1029A00000E010E028E732E4B901A80190E080E0FF
:1029B0000E94FB0200E010E028E732E4B901A80120
:1029C00081E090E00E94FB0200E010E028E732E4A2
:1029D000B901A80182E090E00E94FB0200E010E053
:1029E00028E732E4B901A80183E090E00E94FB02ED
:1029F0000E94A607C12CD12C2CE8E22E22ECF22E4C
:102A000000E010E028E732E4B901A80190E080E09E
:102A10000E94FB0200E010E028E732E4B901A801BF
:102A200081E090E00E94FB0200E010E028E732E441
:102A3000B901A80182E090E00E94FB0200E010E0F2
:102A400028E732E4B901A80183E090E00E94FB028C
:102A50000E94A60780E090E0A0E0B0E48093190215
:102A600090931A02A0931B02B0931C0220E030E066
:102A700040EF51E460912E0270912F02809130025C
:102A8000909131020E9427186B017C0100E010E058
:102A90002FE733E4B901A80190E080E00E94FB0237
:102AA00020E030E040EF51E460913A0270913B0247
:102AB00080913C0290913D020E9428186B017C019C
:102AC00000E010E02FE733E4B901A80181E090E0D5
:102AD0000E94FB0220E030E040EF51E460914602AA
:102AE0007091470280914802909149020E942718F4
:102AF0006B017C0100E010E02FE733E4B901A8018D
:102B000082E090E00E94FB0220E030E040EF51E4E0
:102B1000609152027091530280915402909155023B
:102B20000E9428186B017C0100E010E02FE733E4DD
:102B3000B901A80183E090E00E94FB020E94A60771
:102B40001A821982C12CD12C8FE7E82E83E4F82E4B
:102B500000E010E028E232E4B701A60190E080E056
:102B60000E94FB0200E010E024EA32E4B701A60173
:102B700081E090E00E94FB0200E010E028E232E4F5
:102B8000B701A60182E090E00E94FB0200E010E0A5
:102B900024EA32E4B701A60183E090E00E94FB0240
:102BA0000E94A60700E010E024EA32E4B701A60183
:102BB00090E080E00E94FB0200E010E028E232E4B6
:102BC000B701A60181E090E00E94FB0200E010E066
:102BD00024EA32E4B701A60182E090E00E94FB0201
:102BE00000E010E028E232E4B701A60183E090E0C3
:102BF0000E94FB020E94A607A981BA811196BA839E
:102C0000A9831A9709F08DC180E090E0A0E0B0E4BC
:102C10008093190290931A02A0931B02B0931C0296
:102C200020E030E040EF51E460912E0270912F02DD
:102C300080913002909131020E9428186B017C0132
:102C400000E010E02FE733E4B901A80190E080E054
:102C50000E94FB0220E030E040EF51E460913A0234
:102C600070913B0280913C0290913D020E94271896
:102C70006B017C0100E010E02FE733E4B901A8010B
:102C800081E090E00E94FB0220E030E040EF51E460
:102C900060914602709147028091480290914902EA
:102CA0000E9428186B017C0100E010E02FE733E45C
:102CB000B901A80182E090E00E94FB0220E030E030
:102CC00040EF51E46091520270915302809154029E
:102CD000909155020E9427186B017C0100E010E0E2
:102CE0002FE733E4B901A80183E090E00E94FB02E2
:102CF0000E94A60760ED77E080E090E00E9423014B
:102D000085EA91E00E94DE020E94A80868E873E16B
:102D100080E090E00E9423012114310411F40C940E
:102D2000490C0E94BF01882311F40C94490C0E94A5
:102D300000000C94490C0E94EA07809126029091B1
:102D40002702A0912802B091290289839A83AB833C
:102D5000BC8380912A0290912B02A0912C02B09109
:102D60002D028D839E83AF83B88780912E02909130
:102D70002F02A0913002B091310289879A87AB87E8
:102D8000BC874092190250921A0260921B02709204
:102D90001C02A3E0B0E0BE87AD87C12CD12C78E443
:102DA000E72E72E4F72E00E010E020EA31E44FE66F
:102DB0005FE060E872E490E080E00E94FB020E9425
:102DC000A60708E11EEA23E632E445E150EC66E09E
:102DD00072E490E080E00E94FB020E94A607ED856D
:102DE000FE853197FE87ED87EF2BB9F6C984DA842B
:102DF000EB84FC840D811E812F81388549815A81A5
:102E00006B817C8190E080E00E94FB020E94A6071B
:102E10008092190290921A02A0921B02B0921C0298
:102E20000E94490805CD0E94EA07809126029091F0
:102E30002702A0912802B091290289839A83AB834B
:102E4000BC8380912A0290912B02A0912C02B09118
:102E50002D028D839E83AF83B88780912E0290913F
:102E60002F02A0913002B091310289879A87AB87F7
:102E7000BC874092190250921A0260921B02709213
:102E80001C02A3E0B0E0BE87AD87C12CD12C3CE58D
:102E9000E32E32E4F32E00E010E020EA32E440E0DA
:102EA00050E060E072E490E080E00E94FB020E944B
:102EB000A607C12CD12C40E2E42E41E4F42E00E020
:102EC00010E020EA32E440E050E060E072E490E09C
:102ED00080E00E94FB020E94A607ED85FE853197E7
:102EE000FE87ED87EF2B89F6C984DA84EB84FC84B6
:102EF0000D811E812F81388549815A816B817C81AA
:102F000090E080E00E94FB020E94A60780921902D6
:102F100090921A02A0921B02B0921C020E944908D1
:102F200025CDA981BA81139764F080E090E0A0E8F4
:102F3000B0E48093190290931A02A0931B02B093FD
:102F40001C02A981BA8116970CF4FCCD80E090E0B8
:102F5000A0ECB0E48093190290931A02A0931B0294
:102F6000B0931C02EFCD052E97FB1EF400940E9437
:102F7000CA1757FD07D00E94E51707FC03D04EF48F
:102F80000C94CA1750954095309521953F4F4F4F5F
:102F90005F4F089590958095709561957F4F8F4F05
:102FA0009F4F08950E940718A59F900DB49F900D04
:102FB000A49F800D911D11240895B7FF0C94D21782
:102FC0000E94D217821B930B0895A1E21A2EAA1B0E
:102FD000BB1BFD010DC0AA1FBB1FEE1FFF1FA217C9
:102FE000B307E407F50720F0A21BB30BE40BF50BC6
:102FF000661F771F881F991F1A9469F7609570954F
:10300000809590959B01AC01BD01CF010895A29FD1
:10301000B001B39FC001A39F700D811D1124911DAC
:10302000B29F700D811D1124911D08959F939F776C
:103030000E94B3190F90002042F49058A2EA2AEDA2
:103040003FE049E450E40E943F180C94351A505870
:10305000BB27AA270E943F180C94351A0E94271AF2
:1030600038F00E942E1A20F039F49F3F19F426F40C
:103070000C94FD190EF4E095E7FB0C94F719E92F79
:103080000E94461A58F3BA17620773078407950718
:1030900020F079F4A6F50C94681A0EF4E0950B2E46
:1030A000BA2FA02D0B01B90190010C01CA01A0019A
:1030B0001124FF27591B99F0593F50F4503E68F1F5
:1030C0001A16F040A22F232F342F4427585FF3CF36
:1030D000469537952795A795F0405395C9F77EF407
:1030E0001F16BA0B620B730B840BBAF09150A1F050
:1030F000FF0FBB1F661F771F881FC2F70EC0BA0FD6
:10310000621F731F841F48F4879577956795B7955D
:10311000F7959E3F08F0B0CF9395880F08F0992758
:10312000EE0F9795879508950E94271A60F080E822
:1031300091E009F49EEF0E942E1A28F040E851E039
:1031400071F45EEF0CC00C94FD190C94681AE92F11
:10315000E0780E94461A40F3092E052AB1F326179B
:1031600037074807590738F00E2E07F8E02569F0B1
:10317000E025E0640AC0EF6307F8009407FADB017A
:10318000B9019D01DC01CA01AD01EF930E94221932
:103190000E94351A0E94D7185F91552339F02BED04
:1031A0003FE049E450FD49EC0C9428180895DF9362
:1031B000DD27B92FBF7740E85FE3161617064807EB
:1031C0005B0718F4D92F0E94741A9F938F937F93F3
:1031D0006F930E942F1BE8E6F0E00E94001A0E9405
:1031E000351A2F913F914F915F910E948F1ADD23E5
:1031F00051F09058A2EA2AED3FE049EC5FE3D07825
:103200005D270E943F18DF910C94351A0E94D31954
:1032100008F481E008950E941F190C94351A0E9449
:103220002E1A58F00E94271A40F029F45F3F29F027
:103230000C94F71951110C94691A0C94FD190E9401
:10324000461A68F39923B1F3552391F3951B550B57
:10325000BB27AA2762177307840738F09F5F5F4F69
:10326000220F331F441FAA1FA9F335D00E2E3AF0A8
:10327000E0E832D091505040E695001CCAF72BD0C0
:10328000FE2F29D0660F771F881FBB1F2617370711
:103290004807AB07B0E809F0BB0B802DBF01FF2743
:1032A00093585F4F3AF09E3F510578F00C94F71910
:1032B0000C94691A5F3FE4F3983ED4F386957795B2
:1032C0006795B795F7959F5FC9F7880F911D9695FC
:1032D000879597F90895E1E0660F771F881FBB1F58
:1032E000621773078407BA0720F0621B730B840B05
:1032F000BA0BEE1F88F7E09508950E948419689430
:10330000B1110C94691A08950E944E1A88F09F57C3
:1033100098F0B92F9927B751B0F0E1F0660F771FF9
:10332000881F991F1AF0BA95C9F714C0B13091F0EF
:103330000E94681AB1E008950C94681A672F782FDC
:103340008827B85F39F0B93FCCF3869577956795B4
:10335000B395D9F73EF490958095709561957F4F20
:103360008F4F9F4F0895DF93CF931F930F938B0140
:10337000EC01E5E9F0E00E94001A0E94351A98017C
:10338000AE018B01EC0160E070E080E89FE30E94F9
:1033900027180E94EF1A9801AE010F911F91CF914B
:1033A000DF910C948F1A990F0008550FAA0BE0E8D3
:1033B000FEEF16161706E807F907C0F012161306F7
:1033C000E407F50798F0621B730B840B950B39F437
:1033D0000A2661F0232B242B252B21F408950A269D
:1033E00009F4A140A6958FEF811D811D089597F9DD
:1033F0009F6780E870E060E008959FEF80EC08959B
:10340000DF93CF931F930F93FF92EF92DF927B0195
:103410008C01689406C0DA2EEF010E948F1AFE011B
:10342000E894A5912591359145915591A6F3EF0129
:103430000E943F18FE019701A801DA9469F7DF9016
:10344000EF90FF900F911F91CF91DF91089500248D
:103450000A941616170618060906089500240A94F9
:1034600012161306140605060895092E0394000C7F
:1034700011F4882352F0BB0F40F4BF2B11F460FF0E
:1034800004C06F5F7F4F8F4F9F4F089557FD905837
:10349000440F551F59F05F3F71F04795880F97FB18
:1034A000991F61F09F3F79F08795089512161306D2
:1034B0001406551FF2CF4695F1DF08C01616170601
:1034C0001806991FF1CF8695710561050894089536
:1034D000E894BB2766277727CB0197F908950E94C8
:1034E000D31908F48FEF08959B01AC0160E070E000
:1034F00080E89FE30C940B190E948F1A0C94351AE4
:103500000E94271A38F00E942E1A20F0952311F0FD
:103510000C94F7190C94FD1911240C94691A0E944B
:10352000461A70F3959FC1F3950F50E0551F629FA7
:10353000F001729FBB27F00DB11D639FAA27F00D0C
:10354000B11DAA1F649F6627B00DA11D661F829F33
:103550002227B00DA11D621F739FB00DA11D621F18
:10356000839FA00D611D221F749F3327A00D611D35
:10357000231F849F600D211D822F762F6A2F112417
:103580009F5750409AF0F1F088234AF0EE0FFF1F4A
:10359000BB1F661F771F881F91505040A9F79E3FA1
:1035A000510580F00C94F7190C94691A5F3FE4F30D
:1035B000983ED4F3869577956795B795F795E795F7
:1035C0009F5FC1F7FE2B880F911D9695879597F900
:1035D000089519F416F40C94FD190C94331B0E94F1
:1035E0004E1AB8F39923C9F3B6F39F57550B87FFCB
:1035F0000E94411B0024A0E640EA900180585695A5
:10360000979528F4805C660F771F881F20F0261797
:103610003707480730F4621B730B840B20293129CC
:103620004A2BA69517940794202531254A2758F749
:10363000660F771F881F20F026173707480730F4DA
:10364000620B730B840B200D311D411DA09581F77A
:10365000B901842F9158880F9695879508959B01FD
:10366000AC010C947C1A9F3F31F0915020F4879567
:1036700077956795B795880F911D9695879597F9DA
:10368000089591505040660F771F881FD2F7089514
:10369000991B79E004C0991F961708F0961B881FA4
:1036A0007A95C9F780950895EE0FFF1F0590F49164
:1036B000E02D0994F894FFCF0300040002000600F7
:1036C00007000500090008000A000C000B000D00AF
:1036D00000000000F501550182014202B301910191
:1036E000A5010D0A0053505944455220524F424FF4
:1036F0005420535441525400534552564F5320497D
:103700004E495449414C495A4544005354414E4452
:10371000005354455020464F525741524400535491
:103720004550204241434B005455524E204C454693
:1037300054005455524E2052494748540048414E77
:103740004420574156450048414E44205348414B80
:103750004500424F44592044414E4345005349548B
:02376000000067
:107E0000112484B714BE81FFF0D085E080938100F7
:107E100082E08093C00088E18093C10086E0809377
:107E2000C20080E18093C4008EE0C9D0259A86E02C
:107E300020E33CEF91E0309385002093840096BBD3
:107E4000B09BFECF1D9AA8958150A9F7CC24DD24C4
:107E500088248394B5E0AB2EA1E19A2EF3E0BF2EE7
:107E6000A2D0813461F49FD0082FAFD0023811F036
:107E7000013811F484E001C083E08DD089C08234E0
:107E800011F484E103C0853419F485E0A6D080C0E4
:107E9000853579F488D0E82EFF2485D0082F10E0AE
:107EA000102F00270E291F29000F111F8ED06801E7
:107EB0006FC0863521F484E090D080E0DECF843638
:107EC00009F040C070D06FD0082F6DD080E0C81688
:107ED00080E7D80618F4F601B7BEE895C0E0D1E017
:107EE00062D089930C17E1F7F0E0CF16F0E7DF06D8
:107EF00018F0F601B7BEE89568D007B600FCFDCFD4
:107F0000A601A0E0B1E02C9130E011968C91119780
:107F100090E0982F8827822B932B1296FA010C0160
:107F200087BEE89511244E5F5F4FF1E0A038BF0790
:107F300051F7F601A7BEE89507B600FCFDCF97BE46
:107F4000E89526C08437B1F42ED02DD0F82E2BD052
:107F50003CD0F601EF2C8F010F5F1F4F84911BD097
:107F6000EA94F801C1F70894C11CD11CFA94CF0C13
:107F7000D11C0EC0853739F428D08EE10CD085E9AC
:107F80000AD08FE07ACF813511F488E018D01DD067
:107F900080E101D065CF982F8091C00085FFFCCF94
:107FA0009093C60008958091C00087FFFCCF809118
:107FB000C00084FD01C0A8958091C6000895E0E648
:107FC000F0E098E1908380830895EDDF803219F02E
:107FD00088E0F5DFFFCF84E1DECF1F93182FE3DFCA
:107FE0001150E9F7F2DF1F91089580E0E8DFEE27F6
:047FF000FF270994CA
:027FFE00040479
:00000001FF
